{
  "abi": [
    {
      "type": "receive",
      "stateMutability": "payable"
    },
    {
      "type": "function",
      "name": "batchCollectFunds",
      "inputs": [
        {
          "name": "token",
          "type": "address",
          "internalType": "address"
        },
        {
          "name": "collectionAccounts",
          "type": "address[]",
          "internalType": "address[]"
        }
      ],
      "outputs": [],
      "stateMutability": "nonpayable"
    },
    {
      "type": "function",
      "name": "batchEmergencyFreeze",
      "inputs": [
        {
          "name": "targets",
          "type": "address[]",
          "internalType": "address[]"
        },
        {
          "name": "freeze",
          "type": "bool",
          "internalType": "bool"
        }
      ],
      "outputs": [],
      "stateMutability": "nonpayable"
    },
    {
      "type": "function",
      "name": "cancelSuperAdminTransfer",
      "inputs": [],
      "outputs": [],
      "stateMutability": "nonpayable"
    },
    {
      "type": "function",
      "name": "collectFunds",
      "inputs": [
        {
          "name": "token",
          "type": "address",
          "internalType": "address"
        },
        {
          "name": "collectionAccount",
          "type": "address",
          "internalType": "address"
        }
      ],
      "outputs": [],
      "stateMutability": "nonpayable"
    },
    {
      "type": "function",
      "name": "confirmSuperAdminTransfer",
      "inputs": [],
      "outputs": [],
      "stateMutability": "nonpayable"
    },
    {
      "type": "function",
      "name": "createCollectionAccount",
      "inputs": [
        {
          "name": "name",
          "type": "string",
          "internalType": "string"
        },
        {
          "name": "collectionTarget",
          "type": "address",
          "internalType": "address"
        }
      ],
      "outputs": [
        {
          "name": "",
          "type": "address",
          "internalType": "address"
        }
      ],
      "stateMutability": "nonpayable"
    },
    {
      "type": "function",
      "name": "createPaymentAccount",
      "inputs": [
        {
          "name": "name",
          "type": "string",
          "internalType": "string"
        },
        {
          "name": "controller",
          "type": "address",
          "internalType": "address"
        }
      ],
      "outputs": [
        {
          "name": "",
          "type": "address",
          "internalType": "address"
        }
      ],
      "stateMutability": "nonpayable"
    },
    {
      "type": "function",
      "name": "createSafeAndCollectionAccount",
      "inputs": [
        {
          "name": "proxyFactory",
          "type": "address",
          "internalType": "address"
        },
        {
          "name": "safeSingleton",
          "type": "address",
          "internalType": "address"
        },
        {
          "name": "safeParams",
          "type": "tuple",
          "internalType": "struct IEnterpriseWalletTypes.SafeSetupParams",
          "components": [
            {
              "name": "owners",
              "type": "address[]",
              "internalType": "address[]"
            },
            {
              "name": "threshold",
              "type": "uint256",
              "internalType": "uint256"
            },
            {
              "name": "to",
              "type": "address",
              "internalType": "address"
            },
            {
              "name": "data",
              "type": "bytes",
              "internalType": "bytes"
            },
            {
              "name": "fallbackHandler",
              "type": "address",
              "internalType": "address"
            },
            {
              "name": "paymentToken",
              "type": "address",
              "internalType": "address"
            },
            {
              "name": "payment",
              "type": "uint256",
              "internalType": "uint256"
            },
            {
              "name": "paymentReceiver",
              "type": "address",
              "internalType": "address payable"
            },
            {
              "name": "saltNonce",
              "type": "uint256",
              "internalType": "uint256"
            }
          ]
        },
        {
          "name": "name",
          "type": "string",
          "internalType": "string"
        },
        {
          "name": "collectionTarget",
          "type": "address",
          "internalType": "address"
        }
      ],
      "outputs": [
        {
          "name": "safe",
          "type": "address",
          "internalType": "address"
        },
        {
          "name": "collectionAccount",
          "type": "address",
          "internalType": "address"
        }
      ],
      "stateMutability": "nonpayable"
    },
    {
      "type": "function",
      "name": "createSafeAndPaymentAccount",
      "inputs": [
        {
          "name": "proxyFactory",
          "type": "address",
          "internalType": "address"
        },
        {
          "name": "safeSingleton",
          "type": "address",
          "internalType": "address"
        },
        {
          "name": "safeParams",
          "type": "tuple",
          "internalType": "struct IEnterpriseWalletTypes.SafeSetupParams",
          "components": [
            {
              "name": "owners",
              "type": "address[]",
              "internalType": "address[]"
            },
            {
              "name": "threshold",
              "type": "uint256",
              "internalType": "uint256"
            },
            {
              "name": "to",
              "type": "address",
              "internalType": "address"
            },
            {
              "name": "data",
              "type": "bytes",
              "internalType": "bytes"
            },
            {
              "name": "fallbackHandler",
              "type": "address",
              "internalType": "address"
            },
            {
              "name": "paymentToken",
              "type": "address",
              "internalType": "address"
            },
            {
              "name": "payment",
              "type": "uint256",
              "internalType": "uint256"
            },
            {
              "name": "paymentReceiver",
              "type": "address",
              "internalType": "address payable"
            },
            {
              "name": "saltNonce",
              "type": "uint256",
              "internalType": "uint256"
            }
          ]
        },
        {
          "name": "name",
          "type": "string",
          "internalType": "string"
        }
      ],
      "outputs": [
        {
          "name": "safe",
          "type": "address",
          "internalType": "address"
        },
        {
          "name": "paymentAccount",
          "type": "address",
          "internalType": "address"
        }
      ],
      "stateMutability": "nonpayable"
    },
    {
      "type": "function",
      "name": "emergencyFreeze",
      "inputs": [
        {
          "name": "target",
          "type": "address",
          "internalType": "address"
        },
        {
          "name": "freeze",
          "type": "bool",
          "internalType": "bool"
        }
      ],
      "outputs": [],
      "stateMutability": "nonpayable"
    },
    {
      "type": "function",
      "name": "emergencyPause",
      "inputs": [
        {
          "name": "pause",
          "type": "bool",
          "internalType": "bool"
        }
      ],
      "outputs": [],
      "stateMutability": "nonpayable"
    },
    {
      "type": "function",
      "name": "getCollectionAccountByIndex",
      "inputs": [
        {
          "name": "index",
          "type": "uint256",
          "internalType": "uint256"
        }
      ],
      "outputs": [
        {
          "name": "",
          "type": "tuple",
          "internalType": "struct IAccountManagement.AccountInfo",
          "components": [
            {
              "name": "account",
              "type": "address",
              "internalType": "address"
            },
            {
              "name": "createdAt",
              "type": "uint256",
              "internalType": "uint256"
            },
            {
              "name": "isActive",
              "type": "bool",
              "internalType": "bool"
            }
          ]
        }
      ],
      "stateMutability": "view"
    },
    {
      "type": "function",
      "name": "getCollectionAccountNonce",
      "inputs": [],
      "outputs": [
        {
          "name": "",
          "type": "uint256",
          "internalType": "uint256"
        }
      ],
      "stateMutability": "view"
    },
    {
      "type": "function",
      "name": "getCollectionAccounts",
      "inputs": [],
      "outputs": [
        {
          "name": "",
          "type": "tuple[]",
          "internalType": "struct IAccountManagement.AccountInfo[]",
          "components": [
            {
              "name": "account",
              "type": "address",
              "internalType": "address"
            },
            {
              "name": "createdAt",
              "type": "uint256",
              "internalType": "uint256"
            },
            {
              "name": "isActive",
              "type": "bool",
              "internalType": "bool"
            }
          ]
        }
      ],
      "stateMutability": "view"
    },
    {
      "type": "function",
      "name": "getCollectionAccountsCount",
      "inputs": [],
      "outputs": [
        {
          "name": "",
          "type": "uint256",
          "internalType": "uint256"
        }
      ],
      "stateMutability": "view"
    },
    {
      "type": "function",
      "name": "getCollectionAccountsPaginated",
      "inputs": [
        {
          "name": "offset",
          "type": "uint256",
          "internalType": "uint256"
        },
        {
          "name": "limit",
          "type": "uint256",
          "internalType": "uint256"
        }
      ],
      "outputs": [
        {
          "name": "accounts",
          "type": "tuple[]",
          "internalType": "struct IAccountManagement.AccountInfo[]",
          "components": [
            {
              "name": "account",
              "type": "address",
              "internalType": "address"
            },
            {
              "name": "createdAt",
              "type": "uint256",
              "internalType": "uint256"
            },
            {
              "name": "isActive",
              "type": "bool",
              "internalType": "bool"
            }
          ]
        },
        {
          "name": "total",
          "type": "uint256",
          "internalType": "uint256"
        }
      ],
      "stateMutability": "view"
    },
    {
      "type": "function",
      "name": "getMethodConfig",
      "inputs": [
        {
          "name": "methodSig",
          "type": "bytes4",
          "internalType": "bytes4"
        }
      ],
      "outputs": [
        {
          "name": "",
          "type": "tuple",
          "internalType": "struct IEnterpriseWalletTypes.MethodConfig",
          "components": [
            {
              "name": "controller",
              "type": "address",
              "internalType": "address"
            }
          ]
        }
      ],
      "stateMutability": "view"
    },
    {
      "type": "function",
      "name": "getPaymentAccountByIndex",
      "inputs": [
        {
          "name": "index",
          "type": "uint256",
          "internalType": "uint256"
        }
      ],
      "outputs": [
        {
          "name": "",
          "type": "tuple",
          "internalType": "struct IAccountManagement.AccountInfo",
          "components": [
            {
              "name": "account",
              "type": "address",
              "internalType": "address"
            },
            {
              "name": "createdAt",
              "type": "uint256",
              "internalType": "uint256"
            },
            {
              "name": "isActive",
              "type": "bool",
              "internalType": "bool"
            }
          ]
        }
      ],
      "stateMutability": "view"
    },
    {
      "type": "function",
      "name": "getPaymentAccountNonce",
      "inputs": [],
      "outputs": [
        {
          "name": "",
          "type": "uint256",
          "internalType": "uint256"
        }
      ],
      "stateMutability": "view"
    },
    {
      "type": "function",
      "name": "getPaymentAccounts",
      "inputs": [],
      "outputs": [
        {
          "name": "",
          "type": "tuple[]",
          "internalType": "struct IAccountManagement.AccountInfo[]",
          "components": [
            {
              "name": "account",
              "type": "address",
              "internalType": "address"
            },
            {
              "name": "createdAt",
              "type": "uint256",
              "internalType": "uint256"
            },
            {
              "name": "isActive",
              "type": "bool",
              "internalType": "bool"
            }
          ]
        }
      ],
      "stateMutability": "view"
    },
    {
      "type": "function",
      "name": "getPaymentAccountsCount",
      "inputs": [],
      "outputs": [
        {
          "name": "",
          "type": "uint256",
          "internalType": "uint256"
        }
      ],
      "stateMutability": "view"
    },
    {
      "type": "function",
      "name": "getPaymentAccountsPaginated",
      "inputs": [
        {
          "name": "offset",
          "type": "uint256",
          "internalType": "uint256"
        },
        {
          "name": "limit",
          "type": "uint256",
          "internalType": "uint256"
        }
      ],
      "outputs": [
        {
          "name": "accounts",
          "type": "tuple[]",
          "internalType": "struct IAccountManagement.AccountInfo[]",
          "components": [
            {
              "name": "account",
              "type": "address",
              "internalType": "address"
            },
            {
              "name": "createdAt",
              "type": "uint256",
              "internalType": "uint256"
            },
            {
              "name": "isActive",
              "type": "bool",
              "internalType": "bool"
            }
          ]
        },
        {
          "name": "total",
          "type": "uint256",
          "internalType": "uint256"
        }
      ],
      "stateMutability": "view"
    },
    {
      "type": "function",
      "name": "getSuperAdmin",
      "inputs": [],
      "outputs": [
        {
          "name": "",
          "type": "address",
          "internalType": "address"
        }
      ],
      "stateMutability": "view"
    },
    {
      "type": "function",
      "name": "getSuperAdminTransfer",
      "inputs": [],
      "outputs": [
        {
          "name": "",
          "type": "tuple",
          "internalType": "struct ISuperAdminManagement.SuperAdminTransfer",
          "components": [
            {
              "name": "currentSuperAdmin",
              "type": "address",
              "internalType": "address"
            },
            {
              "name": "proposedSuperAdmin",
              "type": "address",
              "internalType": "address"
            },
            {
              "name": "proposedAt",
              "type": "uint256",
              "internalType": "uint256"
            },
            {
              "name": "timeout",
              "type": "uint256",
              "internalType": "uint256"
            },
            {
              "name": "isActive",
              "type": "bool",
              "internalType": "bool"
            }
          ]
        }
      ],
      "stateMutability": "view"
    },
    {
      "type": "function",
      "name": "initialize",
      "inputs": [
        {
          "name": "methods",
          "type": "bytes4[]",
          "internalType": "bytes4[]"
        },
        {
          "name": "configs",
          "type": "tuple[]",
          "internalType": "struct IEnterpriseWalletTypes.MethodConfig[]",
          "components": [
            {
              "name": "controller",
              "type": "address",
              "internalType": "address"
            }
          ]
        },
        {
          "name": "superAdmin",
          "type": "address",
          "internalType": "address"
        }
      ],
      "outputs": [],
      "stateMutability": "nonpayable"
    },
    {
      "type": "function",
      "name": "isCollectionAccount",
      "inputs": [
        {
          "name": "account",
          "type": "address",
          "internalType": "address"
        }
      ],
      "outputs": [
        {
          "name": "",
          "type": "bool",
          "internalType": "bool"
        }
      ],
      "stateMutability": "view"
    },
    {
      "type": "function",
      "name": "isFrozen",
      "inputs": [
        {
          "name": "target",
          "type": "address",
          "internalType": "address"
        }
      ],
      "outputs": [
        {
          "name": "",
          "type": "bool",
          "internalType": "bool"
        }
      ],
      "stateMutability": "view"
    },
    {
      "type": "function",
      "name": "isPaused",
      "inputs": [],
      "outputs": [
        {
          "name": "",
          "type": "bool",
          "internalType": "bool"
        }
      ],
      "stateMutability": "view"
    },
    {
      "type": "function",
      "name": "isPaymentAccount",
      "inputs": [
        {
          "name": "account",
          "type": "address",
          "internalType": "address"
        }
      ],
      "outputs": [
        {
          "name": "",
          "type": "bool",
          "internalType": "bool"
        }
      ],
      "stateMutability": "view"
    },
    {
      "type": "function",
      "name": "isValidSuperAdminTransfer",
      "inputs": [],
      "outputs": [
        {
          "name": "",
          "type": "bool",
          "internalType": "bool"
        }
      ],
      "stateMutability": "view"
    },
    {
      "type": "function",
      "name": "predictCollectionAccountAddress",
      "inputs": [],
      "outputs": [
        {
          "name": "",
          "type": "address",
          "internalType": "address"
        }
      ],
      "stateMutability": "view"
    },
    {
      "type": "function",
      "name": "predictPaymentAccountAddress",
      "inputs": [],
      "outputs": [
        {
          "name": "",
          "type": "address",
          "internalType": "address"
        }
      ],
      "stateMutability": "view"
    },
    {
      "type": "function",
      "name": "proposeSuperAdminTransfer",
      "inputs": [
        {
          "name": "newSuperAdmin",
          "type": "address",
          "internalType": "address"
        },
        {
          "name": "timeout",
          "type": "uint256",
          "internalType": "uint256"
        }
      ],
      "outputs": [],
      "stateMutability": "nonpayable"
    },
    {
      "type": "function",
      "name": "rescueFunds",
      "inputs": [
        {
          "name": "token",
          "type": "address",
          "internalType": "address"
        },
        {
          "name": "amount",
          "type": "uint256",
          "internalType": "uint256"
        }
      ],
      "outputs": [],
      "stateMutability": "nonpayable"
    },
    {
      "type": "function",
      "name": "setCollectionTarget",
      "inputs": [
        {
          "name": "collectionAccount",
          "type": "address",
          "internalType": "address"
        },
        {
          "name": "target",
          "type": "address",
          "internalType": "address"
        }
      ],
      "outputs": [],
      "stateMutability": "nonpayable"
    },
    {
      "type": "function",
      "name": "setMethodController",
      "inputs": [
        {
          "name": "methodSigs",
          "type": "bytes4[]",
          "internalType": "bytes4[]"
        },
        {
          "name": "controller",
          "type": "address",
          "internalType": "address"
        }
      ],
      "outputs": [],
      "stateMutability": "nonpayable"
    },
    {
      "type": "function",
      "name": "updateMethodController",
      "inputs": [
        {
          "name": "methodSig",
          "type": "bytes4",
          "internalType": "bytes4"
        },
        {
          "name": "controller",
          "type": "address",
          "internalType": "address"
        }
      ],
      "outputs": [],
      "stateMutability": "nonpayable"
    },
    {
      "type": "function",
      "name": "updateMethodControllers",
      "inputs": [
        {
          "name": "methodSigs",
          "type": "bytes4[]",
          "internalType": "bytes4[]"
        },
        {
          "name": "controllers",
          "type": "address[]",
          "internalType": "address[]"
        }
      ],
      "outputs": [],
      "stateMutability": "nonpayable"
    },
    {
      "type": "function",
      "name": "updatePaymentAccountController",
      "inputs": [
        {
          "name": "paymentAccount",
          "type": "address",
          "internalType": "address"
        },
        {
          "name": "controller",
          "type": "address",
          "internalType": "address"
        }
      ],
      "outputs": [],
      "stateMutability": "nonpayable"
    },
    {
      "type": "event",
      "name": "CollectionAccountCreated",
      "inputs": [
        {
          "name": "account",
          "type": "address",
          "indexed": true,
          "internalType": "address"
        },
        {
          "name": "creator",
          "type": "address",
          "indexed": true,
          "internalType": "address"
        }
      ],
      "anonymous": false
    },
    {
      "type": "event",
      "name": "EmergencyFreeze",
      "inputs": [
        {
          "name": "target",
          "type": "address",
          "indexed": true,
          "internalType": "address"
        },
        {
          "name": "frozen",
          "type": "bool",
          "indexed": false,
          "internalType": "bool"
        }
      ],
      "anonymous": false
    },
    {
      "type": "event",
      "name": "EmergencyPause",
      "inputs": [
        {
          "name": "paused",
          "type": "bool",
          "indexed": false,
          "internalType": "bool"
        }
      ],
      "anonymous": false
    },
    {
      "type": "event",
      "name": "FundsCollected",
      "inputs": [
        {
          "name": "from",
          "type": "address",
          "indexed": true,
          "internalType": "address"
        },
        {
          "name": "to",
          "type": "address",
          "indexed": true,
          "internalType": "address"
        },
        {
          "name": "token",
          "type": "address",
          "indexed": true,
          "internalType": "address"
        },
        {
          "name": "amount",
          "type": "uint256",
          "indexed": false,
          "internalType": "uint256"
        }
      ],
      "anonymous": false
    },
    {
      "type": "event",
      "name": "FundsRescued",
      "inputs": [
        {
          "name": "to",
          "type": "address",
          "indexed": true,
          "internalType": "address"
        },
        {
          "name": "token",
          "type": "address",
          "indexed": true,
          "internalType": "address"
        },
        {
          "name": "amount",
          "type": "uint256",
          "indexed": false,
          "internalType": "uint256"
        }
      ],
      "anonymous": false
    },
    {
      "type": "event",
      "name": "Initialized",
      "inputs": [
        {
          "name": "version",
          "type": "uint64",
          "indexed": false,
          "internalType": "uint64"
        }
      ],
      "anonymous": false
    },
    {
      "type": "event",
      "name": "MethodControllerUpdated",
      "inputs": [
        {
          "name": "methodSig",
          "type": "bytes4",
          "indexed": true,
          "internalType": "bytes4"
        },
        {
          "name": "controller",
          "type": "address",
          "indexed": true,
          "internalType": "address"
        }
      ],
      "anonymous": false
    },
    {
      "type": "event",
      "name": "PaymentAccountCreated",
      "inputs": [
        {
          "name": "account",
          "type": "address",
          "indexed": true,
          "internalType": "address"
        },
        {
          "name": "creator",
          "type": "address",
          "indexed": true,
          "internalType": "address"
        },
        {
          "name": "controller",
          "type": "address",
          "indexed": true,
          "internalType": "address"
        }
      ],
      "anonymous": false
    },
    {
      "type": "event",
      "name": "SafeAndCollectionAccountCreated",
      "inputs": [
        {
          "name": "safe",
          "type": "address",
          "indexed": true,
          "internalType": "address"
        },
        {
          "name": "collectionAccount",
          "type": "address",
          "indexed": true,
          "internalType": "address"
        },
        {
          "name": "name",
          "type": "string",
          "indexed": false,
          "internalType": "string"
        },
        {
          "name": "target",
          "type": "address",
          "indexed": false,
          "internalType": "address"
        }
      ],
      "anonymous": false
    },
    {
      "type": "event",
      "name": "SafeAndPaymentAccountCreated",
      "inputs": [
        {
          "name": "safe",
          "type": "address",
          "indexed": true,
          "internalType": "address"
        },
        {
          "name": "paymentAccount",
          "type": "address",
          "indexed": true,
          "internalType": "address"
        },
        {
          "name": "name",
          "type": "string",
          "indexed": false,
          "internalType": "string"
        }
      ],
      "anonymous": false
    },
    {
      "type": "event",
      "name": "SuperAdminTransferCancelled",
      "inputs": [],
      "anonymous": false
    },
    {
      "type": "event",
      "name": "SuperAdminTransferProposed",
      "inputs": [
        {
          "name": "currentSuperAdmin",
          "type": "address",
          "indexed": true,
          "internalType": "address"
        },
        {
          "name": "proposedSuperAdmin",
          "type": "address",
          "indexed": true,
          "internalType": "address"
        }
      ],
      "anonymous": false
    },
    {
      "type": "event",
      "name": "SuperAdminTransferred",
      "inputs": [
        {
          "name": "oldSuperAdmin",
          "type": "address",
          "indexed": true,
          "internalType": "address"
        },
        {
          "name": "newSuperAdmin",
          "type": "address",
          "indexed": true,
          "internalType": "address"
        }
      ],
      "anonymous": false
    },
    {
      "type": "error",
      "name": "AccountNotFound",
      "inputs": []
    },
    {
      "type": "error",
      "name": "ActiveProposalExists",
      "inputs": []
    },
    {
      "type": "error",
      "name": "AlreadyInitialized",
      "inputs": []
    },
    {
      "type": "error",
      "name": "ContractPaused",
      "inputs": []
    },
    {
      "type": "error",
      "name": "Create2EmptyBytecode",
      "inputs": []
    },
    {
      "type": "error",
      "name": "FailedCall",
      "inputs": []
    },
    {
      "type": "error",
      "name": "FailedDeployment",
      "inputs": []
    },
    {
      "type": "error",
      "name": "InsufficientBalance",
      "inputs": [
        {
          "name": "balance",
          "type": "uint256",
          "internalType": "uint256"
        },
        {
          "name": "needed",
          "type": "uint256",
          "internalType": "uint256"
        }
      ]
    },
    {
      "type": "error",
      "name": "InsufficientBalance",
      "inputs": []
    },
    {
      "type": "error",
      "name": "InvalidAddress",
      "inputs": []
    },
    {
      "type": "error",
      "name": "InvalidAmount",
      "inputs": []
    },
    {
      "type": "error",
      "name": "InvalidFactoryAddress",
      "inputs": []
    },
    {
      "type": "error",
      "name": "InvalidInitialization",
      "inputs": []
    },
    {
      "type": "error",
      "name": "InvalidMethodConfig",
      "inputs": []
    },
    {
      "type": "error",
      "name": "InvalidSafeAddress",
      "inputs": []
    },
    {
      "type": "error",
      "name": "InvalidSafeParams",
      "inputs": []
    },
    {
      "type": "error",
      "name": "InvalidTimeout",
      "inputs": []
    },
    {
      "type": "error",
      "name": "NotInitializing",
      "inputs": []
    },
    {
      "type": "error",
      "name": "ProposalExpired",
      "inputs": []
    },
    {
      "type": "error",
      "name": "ProposalNotActive",
      "inputs": []
    },
    {
      "type": "error",
      "name": "ReentrancyGuardReentrantCall",
      "inputs": []
    },
    {
      "type": "error",
      "name": "SafeDeploymentFailed",
      "inputs": []
    },
    {
      "type": "error",
      "name": "SafeERC20FailedOperation",
      "inputs": [
        {
          "name": "token",
          "type": "address",
          "internalType": "address"
        }
      ]
    },
    {
      "type": "error",
      "name": "SameAddressAsCurrentAdmin",
      "inputs": []
    },
    {
      "type": "error",
      "name": "TargetFrozen",
      "inputs": [
        {
          "name": "target",
          "type": "address",
          "internalType": "address"
        }
      ]
    },
    {
      "type": "error",
      "name": "UnauthorizedCaller",
      "inputs": []
    },
    {
      "type": "error",
      "name": "UnauthorizedProposal",
      "inputs": []
    }
  ],
  "bytecode": {
    "object": "0x608060405234801561000f575f80fd5b5060017f9b779b17422d0df92223018b32b4d1fa46e071723d6817e2486d003becc55f00556153fb806100415f395ff3fe608060405260043610610236575f3560e01c80637b81d00d11610129578063c6a828af116100a8578063e58398361161006d578063e5839836146106d1578063e8f6940e14610708578063eccd9d2914610727578063ed05263d146107f3578063f0f3fb5b14610812575f80fd5b8063c6a828af14610641578063c8ac06ed14610660578063cda1988f1461067f578063dd6890ef14610693578063e089c6aa146106b2575f80fd5b80638a22c6da116100ee5780638a22c6da1461058c578063a30796c6146105b8578063b187bd26146105d7578063b4475f2d146105ee578063be13b69f14610602575f80fd5b80637b81d00d146105045780637f6a78cd146105235780638204c3261461054257806382be3dde1461056457806382d72e2f14610578575f80fd5b80634c64d20e116101b55780635aeee8381161017a5780635aeee8381461047f5780635ea854d51461049e57806361f1b5d8146104b257806375682c13146104c657806378e3214f146104e5575f80fd5b80634c64d20e146103e15780634e50debf14610400578063511bebf81461042d57806351ab59a21461044157806356e26b6314610460575f80fd5b80630f10c8c8116101fb5780630f10c8c8146102ef5780632bd959ee1461031e57806331b351311461033f5780633a6d19d5146103535780634358ad24146103c2575f80fd5b80630282ee131461024157806308f25c4a146102645780630af4187d1461029b5780630c6dcef7146102ba5780630eb03246146102db575f80fd5b3661023d57005b5f80fd5b34801561024c575f80fd5b50600b545b6040519081526020015b60405180910390f35b34801561026f575f80fd5b5061028361027e36600461319d565b610831565b6040516001600160a01b03909116815260200161025b565b3480156102a6575f80fd5b506102516102b53660046131ef565b6108c3565b3480156102c5575f80fd5b506102ce610950565b60405161025b9190613288565b3480156102e6575f80fd5b50600a54610251565b3480156102fa575f80fd5b5061030e61030936600461329a565b610a5a565b604051901515815260200161025b565b348015610329575f80fd5b5061033d6103383660046131ef565b610a7a565b005b34801561034a575f80fd5b50600954610251565b34801561035e575f80fd5b506103aa61036d3660046132cc565b60408051602080820183525f918290526001600160e01b0319939093168152600e83528190208151928301909152546001600160a01b0316815290565b60405190516001600160a01b0316815260200161025b565b3480156103cd575f80fd5b5061033d6103dc3660046132e5565b610bf1565b3480156103ec575f80fd5b5061033d6103fb3660046132ff565b610cce565b34801561040b575f80fd5b5061041f61041a366004613329565b610ea8565b60405161025b929190613349565b348015610438575f80fd5b5061033d610ec5565b34801561044c575f80fd5b5061033d61045b3660046133aa565b610fab565b34801561046b575f80fd5b5061033d61047a36600461341f565b6111e5565b34801561048a575f80fd5b5061033d610499366004613452565b611344565b3480156104a9575f80fd5b506102836114b1565b3480156104bd575f80fd5b5061030e61153c565b3480156104d1575f80fd5b5061033d6104e0366004613485565b611564565b3480156104f0575f80fd5b5061033d6104ff3660046132ff565b611734565b34801561050f575f80fd5b5061041f61051e366004613329565b6118d4565b34801561052e575f80fd5b5061030e61053d36600461329a565b6118e5565b34801561054d575f80fd5b5060015461010090046001600160a01b0316610283565b34801561056f575f80fd5b50600c54610251565b348015610583575f80fd5b50610283611905565b348015610597575f80fd5b506105ab6105a63660046134d4565b611945565b60405161025b91906134eb565b3480156105c3575f80fd5b5061033d6105d2366004613517565b611a15565b3480156105e2575f80fd5b5060015460ff1661030e565b3480156105f9575f80fd5b5061033d611b8e565b34801561060d575f80fd5b5061062161061c36600461357e565b611c4d565b604080516001600160a01b0393841681529290911660208301520161025b565b34801561064c575f80fd5b5061033d61065b366004613619565b611d36565b34801561066b575f80fd5b5061028361067a36600461319d565b611f4b565b34801561068a575f80fd5b506102ce611fbc565b34801561069e575f80fd5b5061033d6106ad3660046131ef565b6120bf565b3480156106bd575f80fd5b506106216106cc366004613696565b61223a565b3480156106dc575f80fd5b5061030e6106eb36600461329a565b6001600160a01b03165f9081526020819052604090205460ff1690565b348015610713575f80fd5b5061033d61072236600461371f565b612320565b348015610732575f80fd5b506107a66040805160a0810182525f80825260208201819052918101829052606081018290526080810191909152506040805160a0810182526002546001600160a01b03908116825260035416602082015260045491810191909152600554606082015260065460ff161515608082015290565b60405161025b919081516001600160a01b03908116825260208084015190911690820152604080830151908201526060808301519082015260809182015115159181019190915260a00190565b3480156107fe575f80fd5b506105ab61080d3660046134d4565b61235b565b34801561081d575f80fd5b5061033d61082c3660046131ef565b6123d4565b5f80356001600160e01b031916808252600e602090815260408084208151928301909152546001600160a01b031680825261086b90612524565b60015460ff161561088f5760405163ab35696f60e01b815260040160405180910390fd5b61089761254d565b6108a2868686612568565b92506108ba60015f805160206153a683398151915255565b50509392505050565b5f6001600160a01b0383166108d957504761094a565b604051636eb1769f60e11b81523060048201526001600160a01b03838116602483015284169063dd62ed3e90604401602060405180830381865afa158015610923573d5f803e3d5ffd5b505050506040513d601f19601f820116820180604052508101906109479190613738565b90505b92915050565b600a546060905f816001600160401b0381111561096f5761096f61374f565b6040519080825280602002602001820160405280156109b857816020015b604080516060810182525f80825260208083018290529282015282525f1990920191018161098d5790505b5090505f5b82811015610a535760085f600a83815481106109db576109db613763565b5f9182526020808320909101546001600160a01b0390811684528382019490945260409283019091208251606081018452815490941684526001810154918401919091526002015460ff161515908201528251839083908110610a4057610a40613763565b60209081029190910101526001016109bd565b5092915050565b6001600160a01b03165f9081526008602052604090206002015460ff1690565b5f80356001600160e01b031916808252600e6020908152604092839020835191820190935291546001600160a01b0316808352909190610ab990612524565b60015460ff1615610add5760405163ab35696f60e01b815260040160405180910390fd5b6001600160a01b0384165f90815260208190526040902054849060ff1615610b2857604051634c344f7d60e01b81526001600160a01b03821660048201526024015b60405180910390fd5b610b3061254d565b610b3985610a5a565b610b5657604051637d5d475f60e11b815260040160405180910390fd5b6001600160a01b038416610b7d57604051633f6ace8f60e11b815260040160405180910390fd5b6040516322ab7c7560e11b81526001600160a01b038581166004830152861690634556f8ea906024015b5f604051808303815f87803b158015610bbe575f80fd5b505af1158015610bd0573d5f803e3d5ffd5b50505050610bea60015f805160206153a683398151915255565b5050505050565b60015461010090046001600160a01b03163314610c205760405162461bcd60e51b8152600401610b1f90613777565b6001600160a01b038116610c4757604051633f6ace8f60e11b815260040160405180910390fd5b610c5081612781565b610c6d5760405163474ebe2f60e11b815260040160405180910390fd5b6001600160e01b031982165f818152600e602052604080822080546001600160a01b0319166001600160a01b03861690811790915590519092917f9b1635e988a263ce51376fde006cfa712ff764a45652ec4c2d42e534d651409191a35050565b60015461010090046001600160a01b03163314610cfd5760405162461bcd60e51b8152600401610b1f90613777565b6001600160a01b038216610d245760405163e6c4247b60e01b815260040160405180910390fd5b6001546001600160a01b03610100909104811690831603610d58576040516319c1084b60e11b815260040160405180910390fd5b610d6182612781565b610d7e5760405163474ebe2f60e11b815260040160405180910390fd5b6005546004545f91610d8f916137b5565b6006544291909111915060ff168015610da6575080155b15610dc45760405163792c310960e11b815260040160405180910390fd5b6040805160a0810182526001546001600160a01b0361010090910481168252851660208201524291810191909152606081018315610e025783610e07565b620151805b8152600160209182018190528251600280546001600160a01b03199081166001600160a01b039384161790915592840151600380549094169082161790925560408084015160045560608401516005556080909301516006805460ff1916911515919091179055549151858216926101009004909116907fef5ca9734ccba0eda923940b1b8c0313ac32f516a2ca06c28fd77c5d01e78208905f90a3505050565b60605f610eb9600960078686612810565b915091505b9250929050565b60065460ff16610ee857604051637becc13f60e01b815260040160405180910390fd5b600554600454610ef891906137b5565b421115610f18576040516328a7237960e01b815260040160405180910390fd5b6003546001600160a01b03163314610f465760405160016202820f60e21b0319815260040160405180910390fd5b6006805460ff19169055600180546003546001600160a01b03908116610100818102610100600160a81b031985161790945560405193909204169182907f0f62530a074f4e1e883a8c916fa7f8639d52598edb7f9b5aa3148d991db5610d905f90a350565b60015461010090046001600160a01b03163314610fda5760405162461bcd60e51b8152600401610b1f90613777565b82818114610ffb57604051633f6ace8f60e11b815260040160405180910390fd5b805f0361101b57604051633f6ace8f60e11b815260040160405180910390fd5b5f5b818110156111dd575f84848381811061103857611038613763565b905060200201602081019061104d919061329a565b6001600160a01b03160361107457604051633f6ace8f60e11b815260040160405180910390fd5b6110a384848381811061108957611089613763565b905060200201602081019061109e919061329a565b612781565b6110c05760405163474ebe2f60e11b815260040160405180910390fd5b8383828181106110d2576110d2613763565b90506020020160208101906110e7919061329a565b600e5f8888858181106110fc576110fc613763565b905060200201602081019061111191906132cc565b6001600160e01b031916815260208101919091526040015f2080546001600160a01b0319166001600160a01b039290921691909117905583838281811061115a5761115a613763565b905060200201602081019061116f919061329a565b6001600160a01b031686868381811061118a5761118a613763565b905060200201602081019061119f91906132cc565b6001600160e01b0319167f9b1635e988a263ce51376fde006cfa712ff764a45652ec4c2d42e534d651409160405160405180910390a360010161101d565b505050505050565b60015461010090046001600160a01b031633146112145760405162461bcd60e51b8152600401610b1f90613777565b61121c61254d565b61122682826129a8565b816001600160a01b03167feb91f931ecd76eb4e66768d05e7d6aa0b8754bc7084f417566027b6e19a3919a82604051611263911515815260200190565b60405180910390a2611274826118e5565b156112d55760405163b5bf15e560e01b815281151560048201526001600160a01b0383169063b5bf15e5906024015b5f604051808303815f87803b1580156112ba575f80fd5b505af11580156112cc573d5f803e3d5ffd5b5050505061132a565b6112de82610a5a565b156113115760405163b5bf15e560e01b815281151560048201526001600160a01b0383169063b5bf15e5906024016112a3565b604051637d5d475f60e11b815260040160405180910390fd5b61134060015f805160206153a683398151915255565b5050565b60015461010090046001600160a01b031633146113735760405162461bcd60e51b8152600401610b1f90613777565b815f81900361139557604051633f6ace8f60e11b815260040160405180910390fd5b6001600160a01b0382166113bc57604051633f6ace8f60e11b815260040160405180910390fd5b6113c582612781565b6113e25760405163474ebe2f60e11b815260040160405180910390fd5b5f5b81811015610bea5782600e5f87878581811061140257611402613763565b905060200201602081019061141791906132cc565b6001600160e01b031916815260208101919091526040015f2080546001600160a01b0319166001600160a01b03928316179055831685858381811061145e5761145e613763565b905060200201602081019061147391906132cc565b6001600160e01b0319167f9b1635e988a263ce51376fde006cfa712ff764a45652ec4c2d42e534d651409160405160405180910390a36001016113e4565b5f8030600b546040516020016114c89291906137c8565b6040516020818303038152906040528051906020012090505f604051806020016114f190613132565b601f1982820381018352601f909101166040819052611513919060200161381c565b60405160208183030381529060405290506115358282805190602001206129d2565b9250505090565b6006545f9060ff16801561155f575060055460045461155b91906137b5565b4211155b905090565b60015461010090046001600160a01b031633146115935760405162461bcd60e51b8152600401610b1f90613777565b61159b61254d565b815f8190036115bd57604051633f6ace8f60e11b815260040160405180910390fd5b5f5b81811015611717575f8585838181106115da576115da613763565b90506020020160208101906115ef919061329a565b90506115fb81856129a8565b806001600160a01b03167feb91f931ecd76eb4e66768d05e7d6aa0b8754bc7084f417566027b6e19a3919a85604051611638911515815260200190565b60405180910390a2611649816118e5565b156116a95760405163b5bf15e560e01b815284151560048201526001600160a01b0382169063b5bf15e5906024015f604051808303815f87803b15801561168e575f80fd5b505af11580156116a0573d5f803e3d5ffd5b5050505061170e565b6116b281610a5a565b1561170e5760405163b5bf15e560e01b815284151560048201526001600160a01b0382169063b5bf15e5906024015f604051808303815f87803b1580156116f7575f80fd5b505af1158015611709573d5f803e3d5ffd5b505050505b506001016115bf565b505061172f60015f805160206153a683398151915255565b505050565b60015461010090046001600160a01b031633146117635760405162461bcd60e51b8152600401610b1f90613777565b61176b61254d565b805f0361178b5760405163162908e360e11b815260040160405180910390fd5b6001546001600160a01b0361010090910481169083166117d557814710156117c657604051631e9acf1760e31b815260040160405180910390fd5b6117d081836129de565b611870565b6040516370a0823160e01b815230600482015282906001600160a01b038516906370a0823190602401602060405180830381865afa158015611819573d5f803e3d5ffd5b505050506040513d601f19601f8201168201806040525081019061183d9190613738565b101561185c57604051631e9acf1760e31b815260040160405180910390fd5b6118706001600160a01b0384168284612a51565b826001600160a01b0316816001600160a01b03167fed2837b80b3489773c5f1ed30dd2884b4c90dbf7b87428ea03c49b24ef59a805846040516118b591815260200190565b60405180910390a35061134060015f805160206153a683398151915255565b60605f610eb9600a60088686612810565b6001600160a01b03165f9081526007602052604090206002015460ff1690565b5f8030600c5460405160200161191c929190613837565b6040516020818303038152906040528051906020012090505f604051806020016114f19061313f565b604080516060810182525f808252602082018190529181019190915260095482106119a85760405162461bcd60e51b8152602060048201526013602482015272496e646578206f7574206f6620626f756e647360681b6044820152606401610b1f565b60075f600984815481106119be576119be613763565b5f9182526020808320909101546001600160a01b0390811684528382019490945260409283019091208251606081018452815490941684526001810154918401919091526002015460ff1615159082015292915050565b60015460ff1615611a395760405163ab35696f60e01b815260040160405180910390fd5b611a4161254d565b805f819003611a6357604051633f6ace8f60e11b815260040160405180910390fd5b5f5b81811015611717575f848483818110611a8057611a80613763565b9050602002016020810190611a95919061329a565b9050611ab8816001600160a01b03165f9081526020819052604090205460ff1690565b158015611ac95750611ac981610a5a565b15611b85576001600160a01b038616611b2f57806001600160a01b031663fdff9b816040518163ffffffff1660e01b81526004015f604051808303815f87803b158015611b14575f80fd5b505af1158015611b26573d5f803e3d5ffd5b50505050611b85565b60405162dd82df60e31b81526001600160a01b0387811660048301528216906306ec16f8906024015f604051808303815f87803b158015611b6e575f80fd5b505af1158015611b80573d5f803e3d5ffd5b505050505b50600101611a65565b60015461010090046001600160a01b03163314611bbd5760405162461bcd60e51b8152600401610b1f90613777565b60065460ff16611be057604051637becc13f60e01b815260040160405180910390fd5b6001546002546001600160a01b039081166101009092041614611c195760405160016202820f60e21b0319815260040160405180910390fd5b6006805460ff191690556040517fbc84c2603adde04ce6300533f34797b9a57392341700d79615f8647d6942065c905f90a1565b6001545f90819061010090046001600160a01b03163314611c805760405162461bcd60e51b8152600401610b1f90613777565b60015460ff1615611ca45760405163ab35696f60e01b815260040160405180910390fd5b611cac61254d565b611cb7888888612a86565b9150611cc4858585612d1d565b9050806001600160a01b0316826001600160a01b03167f86c8aea7aab7fc4ededf3146e3e4bc4136ef1a6df1fe018c530ec1d87f0ee285878787604051611d0d93929190613894565b60405180910390a3611d2b60015f805160206153a683398151915255565b965096945050505050565b5f611d3f612f02565b805490915060ff600160401b82041615906001600160401b03165f81158015611d655750825b90505f826001600160401b03166001148015611d805750303b155b905081158015611d8e575080155b15611dac5760405163f92ee8a960e01b815260040160405180910390fd5b845467ffffffffffffffff191660011785558315611dd657845460ff60401b1916600160401b1785555b600d5460ff1615611df95760405162dc149f60e41b815260040160405180910390fd5b88878114611e1a57604051633f6ace8f60e11b815260040160405180910390fd5b611e2387612f2a565b5f5b81811015611eea575f8a8a83818110611e4057611e40613763565b611e5492602091820201908101915061329a565b6001600160a01b031603611e7b57604051633f6ace8f60e11b815260040160405180910390fd5b898982818110611e8d57611e8d613763565b905060200201600e5f8e8e85818110611ea857611ea8613763565b9050602002016020810190611ebd91906132cc565b6001600160e01b031916815260208101919091526040015f20611ee082826138bf565b5050600101611e25565b5050600d805460ff191660011790558315611f3f57845460ff60401b19168555604051600181527fc7f505b2f371ae2175ee4913f4499e1f2633a7b5936321eed1cdaeb6115181d29060200160405180910390a15b50505050505050505050565b5f80356001600160e01b031916808252600e602090815260408084208151928301909152546001600160a01b0316808252611f8590612524565b60015460ff1615611fa95760405163ab35696f60e01b815260040160405180910390fd5b611fb161254d565b6108a2868686612d1d565b6009546060905f816001600160401b03811115611fdb57611fdb61374f565b60405190808252806020026020018201604052801561202457816020015b604080516060810182525f80825260208083018290529282015282525f19909201910181611ff95790505b5090505f5b82811015610a535760075f6009838154811061204757612047613763565b5f9182526020808320909101546001600160a01b0390811684528382019490945260409283019091208251606081018452815490941684526001810154918401919091526002015460ff1615159082015282518390839081106120ac576120ac613763565b6020908102919091010152600101612029565b5f80356001600160e01b031916808252600e6020908152604092839020835191820190935291546001600160a01b03168083529091906120fe90612524565b60015460ff16156121225760405163ab35696f60e01b815260040160405180910390fd5b6001600160a01b0383165f90815260208190526040902054839060ff161561216857604051634c344f7d60e01b81526001600160a01b0382166004820152602401610b1f565b61217061254d565b61217984610a5a565b61219657604051637d5d475f60e11b815260040160405180910390fd5b6001600160a01b0385166121f757836001600160a01b031663fdff9b816040518163ffffffff1660e01b81526004015f604051808303815f87803b1580156121dc575f80fd5b505af11580156121ee573d5f803e3d5ffd5b50505050612224565b60405162dd82df60e31b81526001600160a01b0386811660048301528516906306ec16f890602401610ba7565b610bea60015f805160206153a683398151915255565b6001545f90819061010090046001600160a01b0316331461226d5760405162461bcd60e51b8152600401610b1f90613777565b60015460ff16156122915760405163ab35696f60e01b815260040160405180910390fd5b61229961254d565b6122a4878787612a86565b91506122b1848484612568565b9050806001600160a01b0316826001600160a01b03167f460aff70a8d100b1173216345ee13e8a5fbcc0bdfae2737268c5db6791a3782886866040516122f89291906138e8565b60405180910390a361231660015f805160206153a683398151915255565b9550959350505050565b60015461010090046001600160a01b0316331461234f5760405162461bcd60e51b8152600401610b1f90613777565b61235881612f79565b50565b604080516060810182525f8082526020820181905291810191909152600a5482106123be5760405162461bcd60e51b8152602060048201526013602482015272496e646578206f7574206f6620626f756e647360681b6044820152606401610b1f565b60085f600a84815481106119be576119be613763565b5f80356001600160e01b031916808252600e6020908152604092839020835191820190935291546001600160a01b031680835290919061241390612524565b60015460ff16156124375760405163ab35696f60e01b815260040160405180910390fd5b61243f61254d565b612448846118e5565b61246557604051637d5d475f60e11b815260040160405180910390fd5b6001600160a01b03831661248c57604051633f6ace8f60e11b815260040160405180910390fd5b61249583612781565b6124b25760405163474ebe2f60e11b815260040160405180910390fd5b604051630365adb360e11b81526001600160a01b0384811660048301528516906306cb5b66906024015f604051808303815f87803b1580156124f2575f80fd5b505af1158015612504573d5f803e3d5ffd5b5050505061251e60015f805160206153a683398151915255565b50505050565b336001600160a01b0382161461235857604051635c427cd960e01b815260040160405180910390fd5b612555612fc0565b60025f805160206153a683398151915255565b5f6001600160a01b03821661259057604051633f6ace8f60e11b815260040160405180910390fd5b61259982612781565b6125b65760405163474ebe2f60e11b815260040160405180910390fd5b600b80545f91309190836125c983613903565b919050556040516020016125de9291906137c8565b6040516020818303038152906040528051906020012090505f6040518060200161260790613132565b601f1982820381018352601f909101166040819052612629919060200161381c565b60405160208183030381529060405290505f6126465f8484612ff1565b60405163463fd1af60e01b81529091506001600160a01b0382169063463fd1af9061267b908a908a9030908b9060040161391b565b5f604051808303815f87803b158015612692575f80fd5b505af11580156126a4573d5f803e3d5ffd5b5050604080516060810182526001600160a01b0380861680835242602080850191825260018587018181525f8581526007909352878320965187549087166001600160a01b0319918216178855935187830155516002909601805496151560ff199097169690961790955560098054958601815581527f6e1540171b6c0c960b71a7020d9f60077f6af931a8bbf590da0223dacf75c7af9094018054909116821790559251908a1694503393507f3f2d64265a1d8f3b6d5a211bc2b2b7f6e43f4757acfd574154902e01dd71f9129190a4925050505b9392505050565b5f816001600160a01b03163b5f0361279a57505f919050565b816001600160a01b031663ffa1ad746040518163ffffffff1660e01b81526004015f60405180830381865afa9250505080156127f757506040513d5f823e601f3d908101601f191682016040526127f4919081019061394f565b60015b61280257505f919050565b50600192915050565b919050565b835460609080841061286457604080515f808252602082019092529061285c565b604080516060810182525f80825260208083018290529282015282525f199092019101816128315790505b50915061299f565b606480841115612872578093505b5f61287d85876137b5565b90508281111561288a5750815b5f61289587836139f6565b9050806001600160401b038111156128af576128af61374f565b6040519080825280602002602001820160405280156128f857816020015b604080516060810182525f80825260208083018290529282015282525f199092019101816128cd5790505b5094505f5b8181101561299a57885f8b612912848c6137b5565b8154811061292257612922613763565b5f9182526020808320909101546001600160a01b0390811684528382019490945260409283019091208251606081018452815490941684526001810154918401919091526002015460ff16151590820152865187908390811061298757612987613763565b60209081029190910101526001016128fd565b505050505b94509492505050565b6001600160a01b03919091165f908152602081905260409020805460ff1916911515919091179055565b5f61094783833061307e565b80471015612a085760405163cf47918160e01b815247600482015260248101829052604401610b1f565b612a21828260405180602001604052805f8152506130b0565b15612a2a575050565b3d15612a38576113406130c5565b60405163d6bda27560e01b815260040160405180910390fd5b612a5e83838360016130d0565b61172f57604051635274afe760e01b81526001600160a01b0384166004820152602401610b1f565b5f6001600160a01b0384161580612aa557506001600160a01b0384163b155b15612ac357604051635c7bfbe960e01b815260040160405180910390fd5b6001600160a01b0383161580612ae157506001600160a01b0383163b155b15612aff5760405163474ebe2f60e11b815260040160405180910390fd5b5f612b0a8380613a09565b915050801580612b1c57506020830135155b80612b2a5750808360200135115b15612b485760405163ab6cc23560e01b815260040160405180910390fd5b5f5b81811015612bb1575f612b5d8580613a09565b83818110612b6d57612b6d613763565b9050602002016020810190612b82919061329a565b6001600160a01b031603612ba95760405163ab6cc23560e01b815260040160405180910390fd5b600101612b4a565b505f612bbd8480613a09565b6020860135612bd2606088016040890161329a565b612bdf6060890189613a4e565b612bef60a08b0160808c0161329a565b612bff60c08c0160a08d0161329a565b60c08c0135612c156101008e0160e08f0161329a565b604051602401612c2e9a99989796959493929190613a90565b60408051601f198184030181529181526020820180516001600160e01b031663b63e800d60e01b17905251631688f0b960e01b81529091506001600160a01b03871690631688f0b990612c8e90889085906101008a013590600401613b56565b6020604051808303815f875af1158015612caa573d5f803e3d5ffd5b505050506040513d601f19601f82011682018060405250810190612cce9190613b9f565b92506001600160a01b038316612cf75760405163bae8d8e960e01b815260040160405180910390fd5b612d0083612781565b6108ba5760405163474ebe2f60e11b815260040160405180910390fd5b600c80545f918291309183612d3183613903565b91905055604051602001612d46929190613837565b6040516020818303038152906040528051906020012090505f60405180602001612d6f9061313f565b601f1982820381018352601f909101166040819052612d91919060200161381c565b60405160208183030381529060405290505f612dae5f8484612ff1565b9050806001600160a01b031663463fd1af8888305f6001600160a01b03168a6001600160a01b031614612de15789612de3565b305b6040518563ffffffff1660e01b8152600401612e02949392919061391b565b5f604051808303815f87803b158015612e19575f80fd5b505af1158015612e2b573d5f803e3d5ffd5b5050604080516060810182526001600160a01b0380861680835242602080850191825260018587018181525f85815260089093528783209651875496166001600160a01b031996871617875592518682015591516002909501805495151560ff1990961695909517909455600a8054918201815584527fc65a7bb8d6351c1cf70c95a316cc6a92839c986682d98bc35f958f4883f9d2a8018054909216811790915591513394509192507f6550fac320580d8d6c59493378f2d1dd10b7f7e0bec627d067be994280dea31e91a39695505050505050565b5f807ff0c57e16840df040f15088dc2f81fe391c3923bec73e23a9662efc9c229c6a0061094a565b6001600160a01b038116612f515760405163e6c4247b60e01b815260040160405180910390fd5b600180546001600160a01b0390921661010002610100600160a81b0319909216919091179055565b6001805460ff19168215159081179091556040519081527fb80d1ae5628c2af91424c54c87acfd15016be4bebeef0425b328238702f348319060200160405180910390a150565b5f805160206153a683398151915254600203612fef57604051633ee5aeb560e01b815260040160405180910390fd5b565b5f8347101561301c5760405163cf47918160e01b815247600482015260248101859052604401610b1f565b81515f0361303d57604051631328927760e21b815260040160405180910390fd5b8282516020840186f590506001600160a01b03811661277a573d5f036130765760405163b06ebf3d60e01b815260040160405180910390fd5b61277a6130c5565b5f604051836040820152846020820152828152600b8101905060ff8153605590206001600160a01b0316949350505050565b5f805f83516020850186885af1949350505050565b6040513d5f823e3d81fd5b60405163a9059cbb60e01b5f8181526001600160a01b038616600452602485905291602083604481808b5af1925060015f5114831661312657838315161561311a573d5f823e3d81fd5b5f873b113d1516831692505b60405250949350505050565b610c8180613bbb83390190565b610b6a8061483c83390190565b5f8083601f84011261315c575f80fd5b5081356001600160401b03811115613172575f80fd5b602083019150836020828501011115610ebe575f80fd5b6001600160a01b0381168114612358575f80fd5b5f805f604084860312156131af575f80fd5b83356001600160401b038111156131c4575f80fd5b6131d08682870161314c565b90945092505060208401356131e481613189565b809150509250925092565b5f8060408385031215613200575f80fd5b823561320b81613189565b9150602083013561321b81613189565b809150509250929050565b5f8151808452602080850194508084015f5b8381101561327d5761326a87835180516001600160a01b03168252602080820151908301526040908101511515910152565b6060969096019590820190600101613238565b509495945050505050565b602081525f6109476020830184613226565b5f602082840312156132aa575f80fd5b813561277a81613189565b80356001600160e01b03198116811461280b575f80fd5b5f602082840312156132dc575f80fd5b610947826132b5565b5f80604083850312156132f6575f80fd5b61320b836132b5565b5f8060408385031215613310575f80fd5b823561331b81613189565b946020939093013593505050565b5f806040838503121561333a575f80fd5b50508035926020909101359150565b604081525f61335b6040830185613226565b90508260208301529392505050565b5f8083601f84011261337a575f80fd5b5081356001600160401b03811115613390575f80fd5b6020830191508360208260051b8501011115610ebe575f80fd5b5f805f80604085870312156133bd575f80fd5b84356001600160401b03808211156133d3575f80fd5b6133df8883890161336a565b909650945060208701359150808211156133f7575f80fd5b506134048782880161336a565b95989497509550505050565b8035801515811461280b575f80fd5b5f8060408385031215613430575f80fd5b823561343b81613189565b915061344960208401613410565b90509250929050565b5f805f60408486031215613464575f80fd5b83356001600160401b03811115613479575f80fd5b6131d08682870161336a565b5f805f60408486031215613497575f80fd5b83356001600160401b038111156134ac575f80fd5b6134b88682870161336a565b90945092506134cb905060208501613410565b90509250925092565b5f602082840312156134e4575f80fd5b5035919050565b81516001600160a01b03168152602080830151908201526040808301511515908201526060810161094a565b5f805f60408486031215613529575f80fd5b833561353481613189565b925060208401356001600160401b0381111561354e575f80fd5b61355a8682870161336a565b9497909650939450505050565b5f6101208284031215613578575f80fd5b50919050565b5f805f805f8060a08789031215613593575f80fd5b863561359e81613189565b955060208701356135ae81613189565b945060408701356001600160401b03808211156135c9575f80fd5b6135d58a838b01613567565b955060608901359150808211156135ea575f80fd5b506135f789828a0161314c565b909450925050608087013561360b81613189565b809150509295509295509295565b5f805f805f6060868803121561362d575f80fd5b85356001600160401b0380821115613643575f80fd5b61364f89838a0161336a565b90975095506020880135915080821115613667575f80fd5b506136748882890161336a565b909450925050604086013561368881613189565b809150509295509295909350565b5f805f805f608086880312156136aa575f80fd5b85356136b581613189565b945060208601356136c581613189565b935060408601356001600160401b03808211156136e0575f80fd5b6136ec89838a01613567565b94506060880135915080821115613701575f80fd5b5061370e8882890161314c565b969995985093965092949392505050565b5f6020828403121561372f575f80fd5b61094782613410565b5f60208284031215613748575f80fd5b5051919050565b634e487b7160e01b5f52604160045260245ffd5b634e487b7160e01b5f52603260045260245ffd5b60208082526010908201526f27b7363c9039bab832b91030b236b4b760811b604082015260600190565b634e487b7160e01b5f52601160045260245ffd5b8082018082111561094a5761094a6137a1565b60609290921b6bffffffffffffffffffffffff19168252661c185e5b595b9d60ca1b6014830152601b820152603b0190565b5f5b838110156138145781810151838201526020016137fc565b50505f910152565b5f825161382d8184602087016137fa565b9190910192915050565b60609290921b6bffffffffffffffffffffffff191682526931b7b63632b1ba34b7b760b11b6014830152601e820152603e0190565b81835281816020850137505f828201602090810191909152601f909101601f19169091010190565b604081525f6138a760408301858761386c565b905060018060a01b0383166020830152949350505050565b81356138ca81613189565b81546001600160a01b0319166001600160a01b039190911617905550565b602081525f6138fb60208301848661386c565b949350505050565b5f60018201613914576139146137a1565b5060010190565b606081525f61392e60608301868861386c565b6001600160a01b039485166020840152929093166040909101529392505050565b5f6020828403121561395f575f80fd5b81516001600160401b0380821115613975575f80fd5b818401915084601f830112613988575f80fd5b81518181111561399a5761399a61374f565b604051601f8201601f19908116603f011681019083821181831017156139c2576139c261374f565b816040528281528760208487010111156139da575f80fd5b6139eb8360208301602088016137fa565b979650505050505050565b8181038181111561094a5761094a6137a1565b5f808335601e19843603018112613a1e575f80fd5b8301803591506001600160401b03821115613a37575f80fd5b6020019150600581901b3603821315610ebe575f80fd5b5f808335601e19843603018112613a63575f80fd5b8301803591506001600160401b03821115613a7c575f80fd5b602001915036819003821315610ebe575f80fd5b61010080825281018a90525f61012082018c825b8d811015613ad5578135613ab781613189565b6001600160a01b031683526020928301929190910190600101613aa4565b50508a6020840152613af2604084018b6001600160a01b03169052565b8281036060840152613b0581898b61386c565b915050613b1d60808301876001600160a01b03169052565b6001600160a01b03851660a08301528360c0830152613b4760e08301846001600160a01b03169052565b9b9a5050505050505050505050565b60018060a01b0384168152606060208201525f8351806060840152613b828160808501602088016137fa565b604083019390935250601f91909101601f19160160800192915050565b5f60208284031215613baf575f80fd5b815161277a8161318956fe608060405234801561000f575f80fd5b5060017f9b779b17422d0df92223018b32b4d1fa46e071723d6817e2486d003becc55f0055610c40806100415f395ff3fe608060405260043610610083575f3560e01c8063741606b511610055578063741606b514610116578063b5bf15e514610146578063e1f21c6714610165578063f18d03cc14610184578063f77c4791146101a357005b806306cb5b661461008c57806306fdde03146100ab57806333eeb147146100d5578063463fd1af146100f757005b3661008a57005b005b348015610097575f80fd5b5061008a6100a63660046108ff565b6101c0565b3480156100b6575f80fd5b506100bf610262565b6040516100cc919061091f565b60405180910390f35b3480156100e0575f80fd5b5060035460ff1660405190151581526020016100cc565b348015610102575f80fd5b5061008a61011136600461096a565b6102f2565b348015610121575f80fd5b505f546001600160a01b03165b6040516001600160a01b0390911681526020016100cc565b348015610151575f80fd5b5061008a6101603660046109f5565b6103b4565b348015610170575f80fd5b5061008a61017f366004610a14565b610425565b34801561018f575f80fd5b5061008a61019e366004610a4d565b6104e3565b3480156101ae575f80fd5b506001546001600160a01b031661012e565b5f546001600160a01b031633146101ea5760405163eeb9424760e01b815260040160405180910390fd5b6001600160a01b038116610211576040516336abb4df60e11b815260040160405180910390fd5b600180546001600160a01b038381166001600160a01b0319831681179093556040519116919082907f1c87e2bbc4e5fa5d7f6f8c44d66cb241dff224b8602eb5435ca2076d2a5c6fc2905f90a35050565b60606002805461027190610a95565b80601f016020809104026020016040519081016040528092919081815260200182805461029d90610a95565b80156102e85780601f106102bf576101008083540402835291602001916102e8565b820191905f5260205f20905b8154815290600101906020018083116102cb57829003601f168201915b5050505050905090565b600354610100900460ff161561031a5760405162dc149f60e41b815260040160405180910390fd5b6001600160a01b0382166103415760405163eeb9424760e01b815260040160405180910390fd5b6001600160a01b038116610368576040516336abb4df60e11b815260040160405180910390fd5b6002610375848683610b2e565b505f80546001600160a01b039384166001600160a01b0319918216179091556001805492909316911617905550506003805461ff001916610100179055565b5f546001600160a01b031633146103de5760405163eeb9424760e01b815260040160405180910390fd5b6003805460ff19168215159081179091556040519081527f7c115515c8d84429e161340d221c476d02fb5b2888e14ca6231e1de35d0631a09060200160405180910390a150565b60015461043a906001600160a01b03166106e8565b60035460ff161561045e576040516339e3639960e01b815260040160405180910390fd5b610466610714565b6001600160a01b03831661048d5760405163e6c4247b60e01b815260040160405180910390fd5b6001600160a01b0382166104b45760405163e6c4247b60e01b815260040160405180910390fd5b6104c86001600160a01b038416838361072f565b6104de60015f80516020610beb83398151915255565b505050565b6001546104f8906001600160a01b03166106e8565b60035460ff161561051c576040516339e3639960e01b815260040160405180910390fd5b610524610714565b6001600160a01b03831661054b5760405163162908e360e11b815260040160405180910390fd5b6001600160a01b0382166105725760405163162908e360e11b815260040160405180910390fd5b805f036105925760405163162908e360e11b815260040160405180910390fd5b6001600160a01b038416610660576001600160a01b03831630146105c95760405163162908e360e11b815260040160405180910390fd5b804710156105ea576040516313be252b60e01b815260040160405180910390fd5b5f826001600160a01b0316826040515f6040518083038185875af1925050503d805f8114610633576040519150601f19603f3d011682016040523d82523d5f602084013e610638565b606091505b505090508061065a576040516312171d8360e31b815260040160405180910390fd5b50610675565b6106756001600160a01b0385168484846107ae565b836001600160a01b0316826001600160a01b0316846001600160a01b03167f628242ab082e8da7bc0ded5fc97bd7221701125b9ea41f2cafad31e057429379846040516106c491815260200190565b60405180910390a46106e260015f80516020610beb83398151915255565b50505050565b336001600160a01b0382161461071157604051635c427cd960e01b815260040160405180910390fd5b50565b61071c6107e4565b60025f80516020610beb83398151915255565b61073b8383835f610815565b6104de5761074c83835f6001610815565b61077957604051635274afe760e01b81526001600160a01b03841660048201526024015b60405180910390fd5b6107868383836001610815565b6104de57604051635274afe760e01b81526001600160a01b0384166004820152602401610770565b6107bc848484846001610877565b6106e257604051635274afe760e01b81526001600160a01b0385166004820152602401610770565b5f80516020610beb8339815191525460020361081357604051633ee5aeb560e01b815260040160405180910390fd5b565b60405163095ea7b360e01b5f8181526001600160a01b038616600452602485905291602083604481808b5af1925060015f5114831661086b57838315161561085f573d5f823e3d81fd5b5f873b113d1516831692505b60405250949350505050565b6040516323b872dd60e01b5f8181526001600160a01b038781166004528616602452604485905291602083606481808c5af1925060015f511483166108d35783831516156108c7573d5f823e3d81fd5b5f883b113d1516831692505b604052505f60605295945050505050565b80356001600160a01b03811681146108fa575f80fd5b919050565b5f6020828403121561090f575f80fd5b610918826108e4565b9392505050565b5f6020808352835180828501525f5b8181101561094a5785810183015185820160400152820161092e565b505f604082860101526040601f19601f8301168501019250505092915050565b5f805f806060858703121561097d575f80fd5b843567ffffffffffffffff80821115610994575f80fd5b818701915087601f8301126109a7575f80fd5b8135818111156109b5575f80fd5b8860208285010111156109c6575f80fd5b6020928301965094506109dc91870190506108e4565b91506109ea604086016108e4565b905092959194509250565b5f60208284031215610a05575f80fd5b81358015158114610918575f80fd5b5f805f60608486031215610a26575f80fd5b610a2f846108e4565b9250610a3d602085016108e4565b9150604084013590509250925092565b5f805f8060808587031215610a60575f80fd5b610a69856108e4565b9350610a77602086016108e4565b9250610a85604086016108e4565b9396929550929360600135925050565b600181811c90821680610aa957607f821691505b602082108103610ac757634e487b7160e01b5f52602260045260245ffd5b50919050565b634e487b7160e01b5f52604160045260245ffd5b601f8211156104de575f81815260208120601f850160051c81016020861015610b075750805b601f850160051c820191505b81811015610b2657828155600101610b13565b505050505050565b67ffffffffffffffff831115610b4657610b46610acd565b610b5a83610b548354610a95565b83610ae1565b5f601f841160018114610b8b575f8515610b745750838201355b5f19600387901b1c1916600186901b178355610be3565b5f83815260209020601f19861690835b82811015610bbb5786850135825560209485019460019092019101610b9b565b5086821015610bd7575f1960f88860031b161c19848701351681555b505060018560011b0183555b505050505056fe9b779b17422d0df92223018b32b4d1fa46e071723d6817e2486d003becc55f00a2646970667358221220043a50796daa57ca26dc867532769f40c9395a0075ce8f5db89d84e29b845d0864736f6c63430008140033608060405234801561000f575f80fd5b5060017f9b779b17422d0df92223018b32b4d1fa46e071723d6817e2486d003becc55f0055610b29806100415f395ff3fe60806040526004361061009d575f3560e01c8063463fd1af11610062578063463fd1af146101655780636e94729814610184578063741606b5146101a0578063b5bf15e5146101bc578063f8b2cb4f146101db578063fdff9b81146101fa575f80fd5b806306ec16f8146100a857806306fdde03146100c957806333eeb147146100f3578063345ac236146101155780634556f8ea14610146575f80fd5b366100a457005b5f80fd5b3480156100b3575f80fd5b506100c76100c2366004610852565b61020e565b005b3480156100d4575f80fd5b506100dd610365565b6040516100ea9190610872565b60405180910390f35b3480156100fe575f80fd5b5060035460ff1660405190151581526020016100ea565b348015610120575f80fd5b506001546001600160a01b03165b6040516001600160a01b0390911681526020016100ea565b348015610151575f80fd5b506100c7610160366004610852565b6103f5565b348015610170575f80fd5b506100c761017f3660046108bd565b61048f565b34801561018f575f80fd5b50475b6040519081526020016100ea565b3480156101ab575f80fd5b505f546001600160a01b031661012e565b3480156101c7575f80fd5b506100c76101d6366004610948565b61052a565b3480156101e6575f80fd5b506101926101f5366004610852565b61059b565b348015610205575f80fd5b506100c7610609565b60035460ff161561023257604051635004b88160e11b815260040160405180910390fd5b61023a61074d565b6001546001600160a01b03166102635760405163416aebb560e11b815260040160405180910390fd5b6040516370a0823160e01b81523060048201525f906001600160a01b038316906370a0823190602401602060405180830381865afa1580156102a7573d5f803e3d5ffd5b505050506040513d601f19601f820116820180604052508101906102cb9190610967565b9050805f036102ed5760405163f333765d60e01b815260040160405180910390fd5b600154610307906001600160a01b03848116911683610768565b6001546040518281526001600160a01b038481169216907f7a29f18b25c2a66de077085c5729d4e931014e1dfb3e3f1de457d8cd879d40f79060200160405180910390a35061036260015f80516020610ad483398151915255565b50565b6060600280546103749061097e565b80601f01602080910402602001604051908101604052809291908181526020018280546103a09061097e565b80156103eb5780601f106103c2576101008083540402835291602001916103eb565b820191905f5260205f20905b8154815290600101906020018083116103ce57829003601f168201915b5050505050905090565b5f546001600160a01b0316331461041f5760405163eeb9424760e01b815260040160405180910390fd5b6001600160a01b0381166104465760405163416aebb560e11b815260040160405180910390fd5b600180546001600160a01b0319166001600160a01b0383169081179091556040517f3f5353429fe8f3e58bec441cad6818f6c519de3f0bed39f8ff8aed37ecf9610b905f90a250565b600354610100900460ff16156104b75760405162dc149f60e41b815260040160405180910390fd5b6001600160a01b0382166104de5760405163eeb9424760e01b815260040160405180910390fd5b60026104eb848683610a17565b505f80546001600160a01b039384166001600160a01b0319918216179091556001805492909316911617905550506003805461ff001916610100179055565b5f546001600160a01b031633146105545760405163eeb9424760e01b815260040160405180910390fd5b6003805460ff19168215159081179091556040519081527f7c115515c8d84429e161340d221c476d02fb5b2888e14ca6231e1de35d0631a09060200160405180910390a150565b6040516370a0823160e01b81523060048201525f906001600160a01b038316906370a0823190602401602060405180830381865afa1580156105df573d5f803e3d5ffd5b505050506040513d601f19601f820116820180604052508101906106039190610967565b92915050565b60035460ff161561062d57604051635004b88160e11b815260040160405180910390fd5b61063561074d565b6001546001600160a01b031661065e5760405163416aebb560e11b815260040160405180910390fd5b475f8190036106805760405163f333765d60e01b815260040160405180910390fd5b6001546040515f916001600160a01b03169083908381818185875af1925050503d805f81146106ca576040519150601f19603f3d011682016040523d82523d5f602084013e6106cf565b606091505b50509050806106f1576040516312171d8360e31b815260040160405180910390fd5b6001546040518381525f916001600160a01b0316907f7a29f18b25c2a66de077085c5729d4e931014e1dfb3e3f1de457d8cd879d40f79060200160405180910390a3505061074b60015f80516020610ad483398151915255565b565b6107556107a6565b60025f80516020610ad483398151915255565b61077583838360016107d5565b6107a157604051635274afe760e01b81526001600160a01b038416600482015260240160405180910390fd5b505050565b5f80516020610ad48339815191525460020361074b57604051633ee5aeb560e01b815260040160405180910390fd5b60405163a9059cbb60e01b5f8181526001600160a01b038616600452602485905291602083604481808b5af1925060015f5114831661082b57838315161561081f573d5f823e3d81fd5b5f873b113d1516831692505b60405250949350505050565b80356001600160a01b038116811461084d575f80fd5b919050565b5f60208284031215610862575f80fd5b61086b82610837565b9392505050565b5f6020808352835180828501525f5b8181101561089d57858101830151858201604001528201610881565b505f604082860101526040601f19601f8301168501019250505092915050565b5f805f80606085870312156108d0575f80fd5b843567ffffffffffffffff808211156108e7575f80fd5b818701915087601f8301126108fa575f80fd5b813581811115610908575f80fd5b886020828501011115610919575f80fd5b60209283019650945061092f9187019050610837565b915061093d60408601610837565b905092959194509250565b5f60208284031215610958575f80fd5b8135801515811461086b575f80fd5b5f60208284031215610977575f80fd5b5051919050565b600181811c9082168061099257607f821691505b6020821081036109b057634e487b7160e01b5f52602260045260245ffd5b50919050565b634e487b7160e01b5f52604160045260245ffd5b601f8211156107a1575f81815260208120601f850160051c810160208610156109f05750805b601f850160051c820191505b81811015610a0f578281556001016109fc565b505050505050565b67ffffffffffffffff831115610a2f57610a2f6109b6565b610a4383610a3d835461097e565b836109ca565b5f601f841160018114610a74575f8515610a5d5750838201355b5f19600387901b1c1916600186901b178355610acc565b5f83815260209020601f19861690835b82811015610aa45786850135825560209485019460019092019101610a84565b5086821015610ac0575f1960f88860031b161c19848701351681555b505060018560011b0183555b505050505056fe9b779b17422d0df92223018b32b4d1fa46e071723d6817e2486d003becc55f00a2646970667358221220599575495239b0de7eb47de7ff10d502797c8591c1b660fe4e3910bbfcb13ed864736f6c634300081400339b779b17422d0df92223018b32b4d1fa46e071723d6817e2486d003becc55f00a26469706673582212208bbe7af503ae5a979af47f8ae16d214ba17259a1dbed7cfb6543c47ff0af347d64736f6c63430008140033",
    "linkReferences": {}
  },
  "methodIdentifiers": {
    "batchCollectFunds(address,address[])": "a30796c6",
    "batchEmergencyFreeze(address[],bool)": "75682c13",
    "cancelSuperAdminTransfer()": "b4475f2d",
    "collectFunds(address,address)": "dd6890ef",
    "confirmSuperAdminTransfer()": "511bebf8",
    "createCollectionAccount(string,address)": "c8ac06ed",
    "createPaymentAccount(string,address)": "08f25c4a",
    "createSafeAndCollectionAccount(address,address,(address[],uint256,address,bytes,address,address,uint256,address,uint256),string,address)": "be13b69f",
    "createSafeAndPaymentAccount(address,address,(address[],uint256,address,bytes,address,address,uint256,address,uint256),string)": "e089c6aa",
    "emergencyFreeze(address,bool)": "56e26b63",
    "emergencyPause(bool)": "e8f6940e",
    "getAllowance(address,address)": "0af4187d",
    "getCollectionAccountByIndex(uint256)": "ed05263d",
    "getCollectionAccountNonce()": "82be3dde",
    "getCollectionAccounts()": "0c6dcef7",
    "getCollectionAccountsCount()": "0eb03246",
    "getCollectionAccountsPaginated(uint256,uint256)": "7b81d00d",
    "getMethodConfig(bytes4)": "3a6d19d5",
    "getPaymentAccountByIndex(uint256)": "8a22c6da",
    "getPaymentAccountNonce()": "0282ee13",
    "getPaymentAccounts()": "cda1988f",
    "getPaymentAccountsCount()": "31b35131",
    "getPaymentAccountsPaginated(uint256,uint256)": "4e50debf",
    "getSuperAdmin()": "8204c326",
    "getSuperAdminTransfer()": "eccd9d29",
    "initialize(bytes4[],(address)[],address)": "c6a828af",
    "isCollectionAccount(address)": "0f10c8c8",
    "isFrozen(address)": "e5839836",
    "isPaused()": "b187bd26",
    "isPaymentAccount(address)": "7f6a78cd",
    "isValidSuperAdminTransfer()": "61f1b5d8",
    "predictCollectionAccountAddress()": "82d72e2f",
    "predictPaymentAccountAddress()": "5ea854d5",
    "proposeSuperAdminTransfer(address,uint256)": "4c64d20e",
    "rescueFunds(address,uint256)": "78e3214f",
    "setCollectionTarget(address,address)": "2bd959ee",
    "setMethodController(bytes4[],address)": "5aeee838",
    "updateMethodController(bytes4,address)": "4358ad24",
    "updateMethodControllers(bytes4[],address[])": "51ab59a2",
    "updatePaymentAccountController(address,address)": "f0f3fb5b"
  },
  "id": 66
}