{"abi":[{"type":"constructor","inputs":[],"stateMutability":"nonpayable"},{"type":"function","name":"addImplementation","inputs":[{"name":"implementation","type":"address","internalType":"address"}],"outputs":[],"stateMutability":"nonpayable"},{"type":"function","name":"createWallet","inputs":[{"name":"implementation","type":"address","internalType":"address"},{"name":"salt","type":"bytes32","internalType":"bytes32"},{"name":"params","type":"tuple","internalType":"struct IEnterpriseWalletFactory.InitParams","components":[{"name":"methods","type":"bytes4[]","internalType":"bytes4[]"},{"name":"configs","type":"tuple[]","internalType":"struct IEnterpriseWalletTypes.MethodConfig[]","components":[{"name":"controller","type":"address","internalType":"address"}]},{"name":"superAdmin","type":"address","internalType":"address"}]}],"outputs":[{"name":"","type":"address","internalType":"address"}],"stateMutability":"nonpayable"},{"type":"function","name":"getWhitelistedImplementations","inputs":[],"outputs":[{"name":"","type":"address[]","internalType":"address[]"}],"stateMutability":"view"},{"type":"function","name":"isImplementationWhitelisted","inputs":[{"name":"implementation","type":"address","internalType":"address"}],"outputs":[{"name":"","type":"bool","internalType":"bool"}],"stateMutability":"view"},{"type":"function","name":"owner","inputs":[],"outputs":[{"name":"","type":"address","internalType":"address"}],"stateMutability":"view"},{"type":"function","name":"predictWalletAddress","inputs":[{"name":"implementation","type":"address","internalType":"address"},{"name":"salt","type":"bytes32","internalType":"bytes32"},{"name":"deployer","type":"address","internalType":"address"}],"outputs":[{"name":"","type":"address","internalType":"address"}],"stateMutability":"view"},{"type":"function","name":"removeImplementation","inputs":[{"name":"implementation","type":"address","internalType":"address"}],"outputs":[],"stateMutability":"nonpayable"},{"type":"function","name":"renounceOwnership","inputs":[],"outputs":[],"stateMutability":"nonpayable"},{"type":"function","name":"transferOwnership","inputs":[{"name":"newOwner","type":"address","internalType":"address"}],"outputs":[],"stateMutability":"nonpayable"},{"type":"event","name":"ImplementationAdded","inputs":[{"name":"implementation","type":"address","indexed":true,"internalType":"address"}],"anonymous":false},{"type":"event","name":"ImplementationRemoved","inputs":[{"name":"implementation","type":"address","indexed":true,"internalType":"address"}],"anonymous":false},{"type":"event","name":"OwnershipTransferred","inputs":[{"name":"previousOwner","type":"address","indexed":true,"internalType":"address"},{"name":"newOwner","type":"address","indexed":true,"internalType":"address"}],"anonymous":false},{"type":"event","name":"WalletCreated","inputs":[{"name":"wallet","type":"address","indexed":true,"internalType":"address"},{"name":"owner","type":"address","indexed":true,"internalType":"address"},{"name":"implementation","type":"address","indexed":true,"internalType":"address"},{"name":"salt","type":"bytes32","indexed":false,"internalType":"bytes32"}],"anonymous":false},{"type":"error","name":"FailedDeployment","inputs":[]},{"type":"error","name":"ImplementationAlreadyExists","inputs":[{"name":"implementation","type":"address","internalType":"address"}]},{"type":"error","name":"ImplementationNotWhitelisted","inputs":[{"name":"implementation","type":"address","internalType":"address"}]},{"type":"error","name":"InsufficientBalance","inputs":[{"name":"balance","type":"uint256","internalType":"uint256"},{"name":"needed","type":"uint256","internalType":"uint256"}]},{"type":"error","name":"InvalidImplementation","inputs":[]},{"type":"error","name":"OwnableInvalidOwner","inputs":[{"name":"owner","type":"address","internalType":"address"}]},{"type":"error","name":"OwnableUnauthorizedAccount","inputs":[{"name":"account","type":"address","internalType":"address"}]},{"type":"error","name":"WalletAlreadyExists","inputs":[]}],"bytecode":{"object":"0x608060405234801561000f575f80fd5b50338061003557604051631e4fbdf760e01b81525f600482015260240160405180910390fd5b61003e81610044565b50610093565b5f80546001600160a01b038381166001600160a01b0319831681178455604051919092169283917f8be0079c531659141344cd1fd0a4f28419497f9722a3daafe3b4186f6b6457e09190a35050565b610aad806100a05f395ff3fe608060405234801561000f575f80fd5b5060043610610090575f3560e01c80638876c2eb116100635780638876c2eb146100fa5780638da5cb5b14610135578063c6e2a40014610145578063dec4d1af14610158578063f2fde38b1461016b575f80fd5b806319bc1a0c1461009457806322175a32146100b257806365205ee0146100c7578063715018a6146100f2575b5f80fd5b61009c61017e565b6040516100a99190610822565b60405180910390f35b6100c56100c0366004610889565b6101de565b005b6100da6100d53660046108a2565b610379565b6040516001600160a01b0390911681526020016100a9565b6100c56103d0565b610125610108366004610889565b6001600160a01b03165f9081526001602052604090205460ff1690565b60405190151581526020016100a9565b5f546001600160a01b03166100da565b6100c5610153366004610889565b6103e3565b6100da6101663660046108db565b6104e4565b6100c5610179366004610889565b61068b565b606060028054806020026020016040519081016040528092919081815260200182805480156101d457602002820191905f5260205f20905b81546001600160a01b031681526001909101906020018083116101b6575b5050505050905090565b6101e66106c8565b6001600160a01b0381165f9081526001602052604090205460ff1661022e576040516324f03c0d60e21b81526001600160a01b03821660048201526024015b60405180910390fd5b6001600160a01b0381165f908152600160205260408120805460ff19169055600254905b8181101561034157826001600160a01b03166002828154811061027757610277610934565b5f918252602090912001546001600160a01b03160361033957600261029d600184610948565b815481106102ad576102ad610934565b5f91825260209091200154600280546001600160a01b0390921691839081106102d8576102d8610934565b905f5260205f20015f6101000a8154816001600160a01b0302191690836001600160a01b03160217905550600280548061031457610314610967565b5f8281526020902081015f1990810180546001600160a01b0319169055019055610341565b600101610252565b506040516001600160a01b038316907faf23121e2402485071dadf421078b368d7b67e54cabcc81540563c5d6bf1a4c3905f90a25050565b6040516bffffffffffffffffffffffff19606083901b166020820152603481018390525f9081906054016040516020818303038152906040528051906020012090506103c585826106f4565b9150505b9392505050565b6103d86106c8565b6103e15f610761565b565b6103eb6106c8565b6001600160a01b0381165f9081526001602052604090205460ff161561042f57604051637caff81d60e01b81526001600160a01b0382166004820152602401610225565b806001600160a01b03163b5f036104595760405163340aafcd60e11b815260040160405180910390fd5b6001600160a01b0381165f818152600160208190526040808320805460ff19168317905560028054928301815583527f405787fa12a823e0f2b7631cc41b3ba8828b3321ca811111fa75cd3aa3bb5ace90910180546001600160a01b03191684179055517f331cedc71f28c46d467691770675b586e8aa77a0d4fe09f257d01ef00bc154589190a250565b6001600160a01b0383165f9081526001602052604081205460ff16610527576040516324f03c0d60e21b81526001600160a01b0385166004820152602401610225565b6040516bffffffffffffffffffffffff193360601b166020820152603481018490525f906054016040516020818303038152906040528051906020012090505f61057186836106f4565b90506001600160a01b0381163b1561059c57604051630f721df160e31b815260040160405180910390fd5b6105a686836107b0565b90506001600160a01b03811663c6a828af6105c1868061097b565b6105ce602089018961097b565b6105de60608b0160408c01610889565b6040518663ffffffff1660e01b81526004016105fe9594939291906109c8565b5f604051808303815f87803b158015610615575f80fd5b505af1158015610627573d5f803e3d5ffd5b50505050856001600160a01b0316336001600160a01b0316826001600160a01b03167fdf0ba70dab079d6aae8592d45293b0f7ffbbaaf7b10676c06b702d67a3c2cf908860405161067a91815260200190565b60405180910390a495945050505050565b6106936106c8565b6001600160a01b0381166106bc57604051631e4fbdf760e01b81525f6004820152602401610225565b6106c581610761565b50565b5f546001600160a01b031633146103e15760405163118cdaa760e01b8152336004820152602401610225565b6040513060388201526f5af43d82803e903d91602b57fd5bf3ff602482015260148101839052733d602d80600a3d3981f3363d3d373d3d3d363d738152605881018290526037600c820120607882015260556043909101205f906001600160a01b03165b90505b92915050565b5f80546001600160a01b038381166001600160a01b0319831681178455604051919092169283917f8be0079c531659141344cd1fd0a4f28419497f9722a3daafe3b4186f6b6457e09190a35050565b5f61075883838380763d602d80600a3d3981f3363d3d373d3d3d363d730000008460601b60e81c175f526e5af43d82803e903d91602b57fd5bf38460781b17602052826037600984f590506001600160a01b0381166103c95760405163b06ebf3d60e01b815260040160405180910390fd5b602080825282518282018190525f9190848201906040850190845b818110156108625783516001600160a01b03168352928401929184019160010161083d565b50909695505050505050565b80356001600160a01b0381168114610884575f80fd5b919050565b5f60208284031215610899575f80fd5b6107588261086e565b5f805f606084860312156108b4575f80fd5b6108bd8461086e565b9250602084013591506108d26040850161086e565b90509250925092565b5f805f606084860312156108ed575f80fd5b6108f68461086e565b925060208401359150604084013567ffffffffffffffff811115610918575f80fd5b840160608187031215610929575f80fd5b809150509250925092565b634e487b7160e01b5f52603260045260245ffd5b8181038181111561075b57634e487b7160e01b5f52601160045260245ffd5b634e487b7160e01b5f52603160045260245ffd5b5f808335601e19843603018112610990575f80fd5b83018035915067ffffffffffffffff8211156109aa575f80fd5b6020019150600581901b36038213156109c1575f80fd5b9250929050565b606080825281018590525f8660808301825b88811015610a0f5782356001600160e01b031981168082146109fa575f80fd5b835250602092830192909101906001016109da565b508381036020858101919091528682529150869082015f5b87811015610a53576001600160a01b03610a408461086e565b1682529183019190830190600101610a27565b506001600160a01b03861660408601529250610a6d915050565b969550505050505056fea2646970667358221220fc4a3b66372195b5621d6ee9c1377107efdd509e1d721f8b0f395b994e4a095d64736f6c63430008140033","linkReferences":{}},"methodIdentifiers":{"addImplementation(address)":"c6e2a400","createWallet(address,bytes32,(bytes4[],(address)[],address))":"dec4d1af","getWhitelistedImplementations()":"19bc1a0c","isImplementationWhitelisted(address)":"8876c2eb","owner()":"8da5cb5b","predictWalletAddress(address,bytes32,address)":"65205ee0","removeImplementation(address)":"22175a32","renounceOwnership()":"715018a6","transferOwnership(address)":"f2fde38b"},"id":67}